{
  "contractName": "SimpleStorage",
  "abi": [
    {
      "constant": false,
      "inputs": [
        {
          "internalType": "uint256",
          "name": "x",
          "type": "uint256"
        }
      ],
      "name": "setData",
      "outputs": [],
      "payable": false,
      "stateMutability": "nonpayable",
      "type": "function"
    },
    {
      "constant": true,
      "inputs": [],
      "name": "getData",
      "outputs": [
        {
          "internalType": "uint256",
          "name": "",
          "type": "uint256"
        }
      ],
      "payable": false,
      "stateMutability": "view",
      "type": "function"
    }
  ],
  "bytecode": "0x608060405234801561001057600080fd5b5060c68061001f6000396000f3fe6080604052348015600f57600080fd5b506004361060325760003560e01c80633bc5de301460375780635b4b73a9146053575b600080fd5b603d607e565b6040518082815260200191505060405180910390f35b607c60048036036020811015606757600080fd5b81019080803590602001909291905050506087565b005b60008054905090565b806000819055505056fea265627a7a7231582017a23ab820fb6028a7eeb03c4ce0b7d6b40637652e7c5d3e52cae4a7f3cbfbc364736f6c63430005100032",
  "source": "pragma solidity ^0.5.0;\r\n\r\ncontract SimpleStorage {\r\n    uint256 storedData;\r\n\r\n    function setData(uint256 x) public {\r\n        storedData = x;\r\n    }\r\n\r\n    function getData() public view returns (uint256) {\r\n        return storedData;\r\n    }\r\n}\r\n",
  "sourcePath": "F:/DAPP/DAPP/Day3/frontend/contracts/SimpleStorage.sol",
  "compiler": {
    "name": "solc",
    "version": "0.5.16+commit.9c3226ce.Emscripten.clang"
  },
  "schemaVersion": "3.4.1",
  "updatedAt": "2021-06-17T04:48:43.494Z",
  "networkType": "ethereum",
  "devdoc": {
    "methods": {}
  },
  "userdoc": {
    "methods": {}
  }
}